:020000040000FA
:06000000FBEF26F0000CEE
:08000800056ED8CF06F0E0CF31
:1000100007F00001E9CF0DF0EACF08F0E1CF09F0D9
:10002000E2CF0AF0D9CF0BF0DACF0CF0F3CF14F017
:10003000F4CF15F0FACF16F000C00FF001C010F0A9
:1000400002C011F003C012F004C013F0F2AA2CEFAA
:1000500000F0F2B419EF01F00FC000F010C001F091
:1000600011C002F012C003F013C004F00DC0E9FF8C
:1000700008C0EAFF088E09C0E1FF0AC0E2FF0BC01A
:10008000D9FF0CC0DAFF14C0F3FF15C0F4FF16C08F
:10009000FAFF055007C0E0FF06C0D8FF1000F2CFFE
:1000A0000EF0F29EF76AB80FF66E000EF722090006
:1000B000F5500EBEF28E1200280C0106F2CF0EF0A3
:1000C000F29EF76AD60FF66E000EF7220900F55081
:1000D0000EBEF28E1200425554544F4E20433D2521
:1000E0005500F2CF0EF0F29EF76AFC0FF66E000E8E
:1000F000F7220900F5500EBEF28E12004C495354FF
:10010000454E494E4700F2CF0EF0F29EF76A200F9F
:10011000F66E010EF7220900F5500EBEF28E1200A7
:10012000534F434B4554204552524F520000F2CF9B
:100130000EF0F29EF76A480FF66E010EF7220900E4
:10014000F5500EBEF28E1200434F4E4E45435445BD
:1001500044210000F2CF0EF0F29EF76A6E0FF66EA9
:10016000010EF7220900F5500EBEF28E120044492E
:1001700053434F4E4E4543540000F2CF0EF0F29ED3
:10018000F76A940FF66E010EF7220900F5500EBEC5
:10019000F28E1200444953434F4E4E45435445445A
:1001A0000000F2CF0EF0F29EF76ABC0FF66E010E61
:1001B000F7220900F5500EBEF28E12000D0A0A4316
:1001C0004353205443502F4950205455544F5249C3
:1001D000414C2C204558414D504C45203133422054
:1001E0002854435020534552564552290D0A0000C9
:1001F000F2CF0EF0F29EF76A0A0FF66E020EF722A9
:100200000900F5500EBEF28E120064656E656D65D4
:100210000000F2CF0EF0F29EF76A2C0FF66E020E7F
:10022000F7220900F5500EBEF28E1200494E4954D5
:100230000000502AD8B4512A532A5350090802E228
:10024000522A536ACF0ED76E2B0ED66EF2942CEF35
:1002500000F09EA8FED7AD6E000C1C6A020E1D6E4B
:10026000030E1E6E040E1F6E050E206E060E216E0E
:10027000FBEF27F00A0E186E2E0E196E030E1A6E83
:10028000DE0E1B6E0A0E266E2E0E276E030E286ED5
:10029000E20E296EFF0E226E236E246E256AFDEF9C
:1002A00027F0C050C00B0709C06EC09EC280C1506D
:1002B000C00B0E09C16E9250DF0B1109926ECF0E6A
:1002C0009316898A8A888A8AFFEF27F0010EEA6EE0
:1002D000E30EE96EEF500DE0020E016E006A002E93
:1002E000FED7012EFBD7970E006E002EFED7EF2E05
:1002F000F3D7000C0101EA39F00B006E0F0E8C14DD
:1003000000108C6E00D08D8400D000D08D94000140
:10031000000C0F0E9514F009956E8D8200D08D841F
:1003200000D083380F0B0101EA6F8D9400D08D84CB
:1003300000D083380F0BE96F8D940F0E9514956ED6
:10034000EA39006EF00E00160050E911016E00014E
:10035000ADEF01F08D9000D0DCD701C0E9F10101D3
:1003600001AE02D00001F8D78D90E7B18D8000D0AA
:100370008D9200D08D94E839E96F0F0EE917E9C12D
:10038000EAF10001B7DF0101E8510F0BE96FEA6FF5
:100390000001B0DF000C0F0E9514956E8D908D92BC
:1003A0008D94F80E96160F0E0101E36F00018EDF9B
:1003B000010E0101DC6FDC5103080CE3030EEA6F50
:1003C000000198DF050E0101E36F00017FDF0101ED
:1003D000DC2BF1D7020EEA6F00018CDF050E010164
:1003E000E36F000173DF0101DC6BDC51030812E3F2
:1003F000036ADC51F2CFDDF1F29E000150DE010113
:10040000DDBFF28EDE6FE76BE86F0001A3DF010155
:10041000DC2BEBD7000101EF28F0BDC1EAFFBCC126
:10042000E9FF0101FDC1EFFFE92AD8B4EA2AEF6A2A
:10043000BC2BD8B4BD2B0001000C0101E42D01D070
:1004400003D0400EE56F01D0E56B010EE35DE527BB
:10045000E5518009E66FE76BE86F00017BDF5DEF38
:1004600002F00101E2510C0A000105E0060A0FE06A
:10047000020A14E01AD00101E76B010EE86F0001D7
:1004800069DF020E0101E36F000120DF16D0010ECB
:100490000101E36F020EE46F0001CFD70101E76BAA
:1004A000100EE86F000156DF08D0010E0101E76F62
:1004B000E2C1E8F100014EDF00D0000C830ED56EE2
:1004C000CF0ED76E2B0ED66EF28AC00EF21213EF3D
:1004D00006F0030E93129450D70B1009946EFC0E85
:1004E0009516C69A200EC66E400EC76E8C828C8002
:1004F000E2EF03F0C95092C2C9FFC730FEE3C9CF93
:1005000001F0000C8C9287C289F287C292F200013E
:10051000F1DF0201926B0001EDDF01C088F28C82F5
:10052000020188C201F00001000C8C92FF0E020152
:10053000926F0001DFDF8C82F7EF03F08C920201F3
:100540008D5140098F6F926F0001D4DF8EC292F2FD
:10055000D1DF8C82000C8C9202018C51A0098E6F2D
:10056000926F0001C7DF8DC292F2C4DF8C82000C53
:100570008C9202018F518009916F926F0001BADF56
:1005800090C292F2B7DF8C82000C1F0E02018C6FBA
:10059000030E8D6F0001DFDF020E02018D6F8A0EE8
:1005A0008C6F010E8C25E96E000E8D21EA6EEFCF67
:1005B0008EF21F0E8F6F8EC290F20001D9DF000CF9
:1005C0008C92E4C1E6F1E4C192F2000193DF0201F2
:1005D000926B00018FDF0201926B00018BDF01C083
:1005E000E5F18C820101E5C101F00001000C020E71
:1005F00002018B6F140E8A6F0001C7DF140E020117
:100600008D6FE1C18EF2000199DF010E0101E56FEE
:10061000E20EE96EE5C1EAFFEFCFE6F1160E020148
:100620008D6FE6C18EF2000189DF010E0101E56FD9
:10063000E20EE46F010EE425E96E000EE521EA6E9C
:10064000EFCFE6F1170E02018D6FE6C18EF20001C9
:1006500075DF030E02018B6F0A0E8A6F000195DFB2
:100660000A0E0101E46F0001ABDF01C0E4F1000EEE
:10067000010101B0010E000AD8B402D00001F0D788
:100680000001000C020E02018B6F140E8A6F000134
:100690007CDF140E02018D6FE1C18EF200014EDF8E
:1006A000120E02018D6F010E8E6F000147DF030EE7
:1006B00002018B6F0A0E8A6F000167DF0A0E0101CB
:1006C000E46F00017DDF01C0E4F1000E010101B023
:1006D000010E000AD8B402D00001F0D7020E0201C8
:1006E0008B6F140E8A6F000150DF120E02018D6FA6
:1006F0008E6B000123DF180E0101E46F000160DF43
:1007000001C0E2F1190E0101E46F000159DF01C0DF
:10071000E3F10101E2C101F0E3C102F000019CEF4D
:1007200003F01F0E02018C6F0C0E8D6F000113DFA2
:100730000101E16B0001A6D702C0E0F101C0DFF1C9
:100740000101DD51020804E1DD6BE0B1DD2B0AD0CF
:10075000E091DDB1E081E16BE0C1E3F1DFC1E2F105
:10076000000145DF020E02018B6F8A6F00010DDF71
:10077000020E0101E46F000123DF01C0DEF101017F
:10078000DE91DDB1DE81020E02018D6FDEC18EF2DF
:100790000001D4DE0101DD5302E0150E01D0120E7E
:1007A000E16F040E02018D6FE1C18EF20001C6DE21
:1007B0001F0E02018F6F040E906F0001D9DEBFEF94
:1007C00004F087D61D0E0201876F00019BDE01C079
:1007D000DCF10101DCA702D00001F4D7DC51FF0AF3
:1007E000010BD8B402D00001EDD700019ED6010E56
:1007F0000101E36F00016ADD4F6A5880556A546A4F
:10080000080E02018D6F8E6B000198DE090E020149
:100810008D6F8E6B000192DE0C0E02018D6FF70E54
:100820008E6F00018BDE0D0E02018D6F1B0E8E6F21
:10083000000184DE0A0E02018D6FF70E8E6F00013B
:100840007DDE0B0E02018D6F1B0E8E6F000176DEBA
:10085000040E02018D6FF80E8E6F00016FDE050E23
:1008600002018D6F1B0E8E6F000168DE020E020109
:100870008B6F8A6B000189DE02018D6B0D0E8E6F0E
:1008800000015CDE020E02018D6F320E8E6F0001E0
:1008900055DE030E02018D6F400E8E6F00014EDE9D
:1008A000090E02018D6F3F0E8E6F000147DE060EAE
:1008B00002018D6F120E8E6F000140DE070E0201E5
:1008C0008D6F0C0E8E6F000139DE0A0E02018D6FE6
:1008D000EE0E8E6F000132DE0B0E02018D6F050EE3
:1008E0008E6F00012BDE030E02018B6F040E8A6FE8
:1008F00000014BDE040E02018D6F1CC08EF2000160
:100900001DDE050E02018D6F1DC08EF2000116DE88
:10091000020E02018D6F1EC08EF200010FDE030E6B
:1009200002018D6F1FC08EF2000108DE02018D6B87
:1009300020C08EF2000102DE010E02018D6F21C087
:100940008EF20001FBDD120E0201876F0001DADD7D
:1009500001C059F0100E0101E16F010EE36FE26B6F
:10096000000145DE140E0101E16F040EE36F720E0B
:10097000E26F00013CDE0101DD6B0001D2D61F0EEB
:1009800002018F6F040E906F0001F2DD14EF06F08C
:100990005892FF0E0101156F166F176F186F196FC0
:1009A0001A6F1E6B1D6B1C6B1B6B000115EF06F0A5
:1009B000E2C14EF0E1C14DF0E0C14CF0DFC14BF0BF
:1009C000F4EF05F00101E76BE86B010EE96FDA6AFD
:1009D000D96AEC6FDF0EEB6F010EEA6EE30EE96E83
:1009E000ECC1E2FFEBC1E1FFE9C1EAF1D890E550CB
:1009F000EE02F350E723F450E823EA2FF7D7E7C1DC
:100A0000DEFFE8C1E7F1E86BD8B0E82BEB2BD8B4F8
:100A1000EC2BE92BE9510508DFE1000147EF05F078
:100A2000016A026A006A036A0101E55102E1E451C8
:100A300018E0100EE66FD890E237E3370036033641
:100A4000E551035C02E1E451005C07E3E451005E20
:100A5000D8A00306E551035ED88001360236E62FA2
:100A6000EAD7000168EF05F04EC0E2F14DC0E1F1B8
:100A70004CC0E0F14BC0DFF1410E0101E66FC60E44
:100A8000E56F4E0EE46F6D0EE36F00019BD7390EDC
:100A9000010100244B6E300E01204C6E000E02202E
:100AA0004D6E000E03204E6E4DC000F04EC001F0A2
:100AB000026A036A4EC0E1F14DC0E0F14EC0E3F1BD
:100AC0004DC0E2F17F0EE56FFF0EE46F0001A8D785
:100AD00000C001F003C002F0F5EF05F00101DC6B8E
:100AE000DC51040869E3DC51240DF350036A5F0F05
:100AF000016E000E032201C0DDF103C0DEF1DDC195
:100B0000E9FFDEC1EAFF0A0EEF6E230EDD25E96E76
:100B1000000EDE21EA6EEF90230EDD25E96E000E59
:100B2000DE21EA6EEF82230EDD25E96E000EDE2166
:100B3000EA6EEF84230EDD25E96E000EDE21EA6EFB
:100B4000EF98230EDD25E96E000EDE21EA6EEF96AA
:100B50000F0EDD25E96E000EDE21EA6EEF3C01D0BE
:100B600016D00F0EDD25E96E000EDE21EA6EEFCF06
:100B7000DFF1DFC12FF2000102EC00F00F0E0101E6
:100B8000DD25E96E000EDE21EA6EFF0EEF6E210E0E
:100B9000DD25E96E000EDE21EA6EEC6AED521E0ED6
:100BA000EF6E100EDD25E96E000EDE21EA6EEC6AB6
:100BB000ED52EF6ADC2B94D7D6501327D75014236D
:100BC000CE501327CF501423CC501327000E1423DC
:100BD000B2501327B3501423E26BE16B14C1E0F160
:100BE00013C1DFF10001E4D63FD702C05EF001C0BF
:100BF0005DF0040E5E265E5012080AE2FF0A03E171
:100C00005D50870805E2880E5D5E130E5E5AF3D7CD
:100C10005E50030802E3040E5E2616EF06F00101A3
:100C20001F6B00014BD4CDD5B3D658D749EF28F070
:100C300058A001D02ED05880010E545C02012E6FB6
:100C4000000E55582F6F2F511A0809E2FF0A03E1D1
:100C50002E51F70804E21B0E2F6FF70E2E6F1E0E9B
:100C60008F6F400E906F000183DC02018B6B0C0EC6
:100C70008A6F00018ADC0C0E02018D6F2EC28EF28B
:100C800000015CDC0D0E02018D6F2FC28EF200019F
:100C900055DC000C02017A6B7B6B8C923A0E926FE2
:100CA000000128DC02017B51795D1BE303E17851EF
:100CB0007A5D17E277C203F076C27CF277C27DF2EA
:100CC000926B000117DC7DC2EAFF7CC2E9FF01C024
:100CD000EFFF0201762BD8B4772B7A2BD8B47B2B7D
:100CE000E2D78C827AC201F07BC202F00001000CD4
:100CF00088C289F287C28AF2020189C201F08AC2DF
:100D000002F00001000C010E02018B6F190E8A6FB8
:100D100000013BDC190E0201876F000182EC02F03A
:100D200001C0FAF10101FA5303E1000E016E84D013
:100D300058B006D000017CDF000E016E01017CD0AE
:100D400055C057F054C056F002018B6B8A6B0001FE
:100D50001CDC02018D6B54C08EF200019EEC02F08F
:100D6000010E02018D6F55C08EF200019EEC02F063
:100D7000010E0101FB6FE60EFBC177F2E8CF76F2C0
:100D80000201796B140E786F000184DFF9C188F2DB
:100D9000F8C187F2ADDF02C0F9F101C0F8F101013D
:100DA000E7511A0805E2FF0A19E1E651F70816E3D0
:100DB000010EFB6FE60EE96EFBC1EAFFEFB00ED04D
:100DC000EBBF0CD0EAB90AD0E951040805E2FF0AEA
:100DD00005E1E851EE0802E3EABF01D0FF00E7C1F8
:100DE00055F0E6C154F0E2C1FAF1E3C1FBF1E3C111
:100DF000EAFFE2C1E9FF010EE26EF20EE16E060EBD
:100E0000016EE6CFEEFF012EFCD7E4C1E9FFE5C19C
:100E1000EAFFFF0EEF6EF95108080BE1F85303E00B
:100E2000F851060806E1E4C1E9FFE5C1EAFFF8C1AF
:100E3000EFFF5890010E016E0001C5EF1DF0020199
:100E40000DC201F00EC203F00DC20FF20EC210F27D
:100E50000DC2E9FF0EC2EAFFECCF12F2ED52EFCF66
:100E600011F212C288F211C287F2000141DF10C2F2
:100E7000EAFF0FC2E9FF02C0ECFFED5201C0EFFF35
:100E8000020E02010D25016E000E0E21036E01C03F
:100E90000FF2106F020E0D25E96E000E0E21EA6EA4
:100EA000ECCF12F2ED52EFCF11F212C288F211C262
:100EB00087F200011DDF10C2EAFF0FC2E9FF02C086
:100EC000ECFFED5201C0EFFF060E02010D25016E91
:100ED000000E0E21036E01C00FF2106F060E0D25DD
:100EE000E96E000E0E21EA6EECCF12F2ED52EFCF5A
:100EF00011F212C288F211C287F20001F9DE10C2AB
:100F0000EAFF0FC2E9FF02C0ECFFED5201C0EFFFA4
:100F1000000C010E0201776FF10E766F796B1C0EDB
:100F2000786F0001B7DE84DE010E02010E6FF10E54
:100F30000D6F000184DF0101F12D08D0F25306E1AD
:100F4000F551060803E1F651040803E0000E016EB6
:100F500052D0F751020808E1F85306E1EFC1E9FF6A
:100F6000F0C1EAFFEF6A14D0F72D09D0F85307E17A
:100F7000EFC1E9FFF0C1EAFF010EEF6E09D0EFC14A
:100F8000E9FFF0C1EAFF020EEF6E000E016E33D0F2
:100F900018500201095D2BE119500A5D28E11A5031
:100FA0000B5D25E11B500C5D22E10101EDC1E9FF64
:100FB000EEC1EAFF010EE26EF90EE16E060E016E61
:100FC000E6CFEEFF012EFCD7060EED25E96E000EF2
:100FD000EE21EA6EFFC1EFFF00C2ECFF01C2ECFFA1
:100FE00002C2ECFF010E016E06D005D00201000E18
:100FF000016E010100D00001F4EF0AF01F0E0201A2
:10100000876F000182EC02F001C069F2000E02015C
:1010100001B6010E000A02E1000E01D0FF0E016EC2
:1010200000D00001000C81C24FF0070E02018227A0
:101030001C0E83238B6B020E8A6F0001C5EC02F03D
:10104000020E0201856F820EE96E85C2EAFFEFCFC4
:1010500086F28D6B86C28EF200019EEC02F0020ECB
:101060000201856F820E846F010E8425E96E000EE9
:101070008521EA6EEFCF86F2010E8D6F86C28EF269
:1010800000019EEC02F0020E0201856F820EE96EF5
:1010900085C2EAFFEFCF86F2020E8D6F86C28EF216
:1010A00000019EEC02F0020E0201856F820E846F39
:1010B000010E8425E96E000E8521EA6EEFCF86F2DF
:1010C000030E8D6F86C28EF200019EEC02F0000CC2
:1010D0008C927A0E0201926F00017AEC02F08BC2C0
:1010E00092F27AEC02F08C82000C8C927A0E020161
:1010F000926F00017AEC02F002018FC203F08E5170
:10110000D8B48F078E07031012E08DC203F08CC293
:10111000E9FF8DC2EAFFEFCF90F290C292F2000198
:101120007AEC02F002018C2BD8B48D2BE6D78C829E
:101130000001000C02018B6B020E8A6F0001C5ECEE
:1011400002F0020E02018D6FF80E8E6F00019EEC10
:1011500002F0030E02018D6F1B0E8E6F00019EECDC
:1011600002F0060E020188271C0E8923020E8B6FE7
:10117000880EE96E8BC2EAFFEFCF8CF2060E8D6F00
:101180008CC28EF200019EEC02F0020E02018B6F07
:10119000880E8A6F010E8A25E96E000E8B21EA6E99
:1011A000EFCF8CF2070E8D6F8CC28EF200019EEC99
:1011B00002F002018B6B00018BDF86C28DF285C2CB
:1011C0008CF202018F6B060E8E6F00018EDF020122
:1011D0008B6B1C0E8BC28DF28C6F8F6B060E8E6F1D
:1011E000000183DF080E02018B6F000171DF020135
:1011F000875302E1000E01D0060E8B6F000168DFFD
:10120000000C1C0E0201876F000182EC02F001C08D
:1012100074F2000E020101B2010E000A10E01F0E6E
:101220008F6F800E906F0001B8EC02F01F0E02016C
:101230008C6F800E8D6F0001ABEC02F002011C0E72
:101240008C6F0A0E8D6F0001ABEC02F01F0E0201D5
:101250008F6F080E906F0001B8EC02F0595005082E
:10126000D8A4E0D01C0E0201876F000182EC02F0CE
:1012700001C074F2020101500A0BD8A402D000018F
:10128000F1D71C0E876F000182EC02F001C074F2EE
:10129000000E020101B2010E000AD8B4C4D01F0E24
:1012A0008C6F080E8D6F0001ABEC02F002018B6BAE
:1012B0008A6B0001C5EC02F00201876B000182EC31
:1012C00002F001C068F2010E0201876F000182EC9A
:1012D00002F001C069F2060E0201876F000182EC84
:1012E00002F001C06AF2070E0201876F000182EC72
:1012F00002F001C06BF202016A2BD8B46B2B8D6B2C
:101300006AC28EF200019EEC02F0010E02018D6FA6
:101310006BC28EF200019EEC02F0020E0201756FAC
:101320006C0E75C277F2766F796B070E786F0001DD
:10133000B1DC0201736B73510F0866E31C0E876FFB
:10134000000182EC02F001C074F2000E020101B251
:10135000010E000A54E06FAB52D01F0E8F6F800E4B
:10136000906F0001B8EC02F01F0E02018C6F800E2E
:101370008D6F0001ABEC02F01C0E02018C6F0A0EA7
:101380008D6F0001ABEC02F01F0E02018F6F080E93
:10139000906F0001B8EC02F01C0E0201876F000193
:1013A00082EC02F001C074F2020101500A0BD8A4D1
:1013B00002D00001F1D71F0E8C6F080E8D6F000157
:1013C000ABEC02F002018D6B6AC28EF200019EEC62
:1013D00002F0010E02018D6F6BC28EF200019EECD5
:1013E00002F0020E0201756F6C0E75C277F2766F15
:1013F000796B070E786F00014DDC03D0020104D039
:1014000000010201732B97D78D6B68C28EF2000129
:101410009EEC02F0010E02018D6F69C28EF2000196
:101420009EEC02F002010001000C010E0201686F47
:101430000001E4DD01C00CF202010C3D03D0000EFE
:10144000016EBED00CC281F2836B826B0001EBDDBA
:101450000101F16B010EF06F080EF36FF26B060ED7
:10146000F46F040EF56FEF2D0DD0F76B010EF66FD4
:10147000FF0E0201026F036F046F056F066F076FA7
:1014800018D00101F76B020EF66FEEC103F0EDC14B
:101490000DF20201EEC10EF2020EEA6EE96EEEC12D
:1014A000E2FFEDC1E1FF060E016EE6CFEEFF012E79
:1014B000FCD7010EEA6EF80EE96EE26A1C0EE16ED0
:1014C000060E016EE6CFEEFF012EFCD71BC001F227
:1014D0001AC000F219C0FFF118C0FEF1060E01019A
:1014E000ED25E96E000EEE21EA6EEFCF00F0ECCFB5
:1014F00001F0ECCF02F0ECCF03F00050FE19020136
:101500000D6F01500101FF1902010E6F0250001909
:101510000F6F03500119106F0D512214006E0E5100
:101520002314016E0F512414026E10512514036E02
:10153000005206E1015204E1025202E1035209E0C5
:1015400029C00BF228C00AF227C009F226C008F20F
:1015500018D0060E0101ED25E96E000EEE21EA6EAF
:10156000EFCF00F0ECCF01F0ECCF02F0ECCF03F0C6
:1015700003C00BF202C00AF201C009F200C008F277
:101580000201010E0E6FF00E0D6F000158DC020E0D
:101590000201866F856F060E876F896B1C0E886F40
:1015A0000001C8DD010E02018D6FF00E8C6F8F6B94
:1015B0001C0E8E6F000199DD24DE010E016E02010A
:1015C000000120EF0BF0000E58B2010E000A01E0FE
:1015D0002FD0010E0101EE6FE20EED6F010EF06FE4
:1015E000EC0EEF6F000195D4015201E131D018ECFF
:1015F00006F00101EC531AE1010EEA6E150EE96ED8
:10160000010EE26EE20EE16E060E016EE6CFEEFF17
:10161000012EFCD7EBC11EF1EAC11DF1E9C11CF19D
:10162000E8C11BF1000114D003D001015882000170
:10163000010E0101EE6FE20EED6FEF6B0001F5D6CA
:10164000015202E0589203D0000E016E03D000D088
:10165000010E016EDEEF1DF0140E56240201416FE3
:10166000000E5720426F3B5141253F6F3C514221B4
:10167000406F40511A0809E2FF0A03E13F51F708A1
:1016800004E2F80E3F5F1B0E405B8B6B100E8A6FFF
:101690000001C5EC02F0100E02018D6F3FC28EF208
:1016A00000019EEC02F0110E02018D6F40C28EF21D
:1016B00000019EEC02F0010E02013D5D006E000E85
:1016C0003E59036E00503F270350402340511A08F3
:1016D00009E2FF0A03E13F51F70804E2F80E3F5F19
:1016E0001B0E405B120E8D6F3FC28EF200019EEC0E
:1016F00002F0130E02018D6F40C28EF200019EECCB
:1017000002F01F0E02018F6F300E906F0001B8ECD7
:1017100002F01F0E0201876F000182EC02F001C08F
:1017200041F2000E020101BA010E000AD8B402D043
:101730000001EFD7160E876F000182EC02F001C0A6
:1017400040F2170E0201876F000182EC02F001C027
:101750003FF202013FC201F040C202F00001000C62
:10176000140E56240201186F000E5720196F1451E1
:101770001825166F15511921176F17511A0809E20C
:10178000FF0A03E11651F70804E2F80E165F1B0E7C
:10179000175B8B6B8A6B0001C5EC02F002018D6B4D
:1017A00016C28EF200019EEC02F0010E02018D6F56
:1017B00017C28EF200019EEC02F0020E02018D6F44
:1017C00016C28EF200019EEC02F0030E02018D6F34
:1017D00017C28EF200019EEC02F0000C020E020114
:1017E0008125016E000E8221036E01C083F2846F99
:1017F000020E8125E96E000E8221EA6EECCF86F2A0
:10180000ED52EFCF85F286C288F285C287F20001E1
:1018100078EC06F084C2EAFF83C2E9FF02C0ECFF65
:10182000ED5201C0EFFF040E02018125016E000E92
:101830008221036E01C083F2846F040E8125E96E5C
:10184000000E8221EA6EECCF86F2ED52EFCF85F2E8
:1018500086C288F285C287F2000178EC06F084C265
:10186000EAFF83C2E9FF02C0ECFFED5201C0EFFFC7
:101870000A0E02018125016E000E8221036E01C055
:1018800083F2846F0A0E8125E96E000E8221EA6ED2
:10189000ECCF86F2ED52EFCF85F286C288F285C298
:1018A00087F2000178EC06F084C2EAFF83C2E9FF08
:1018B00002C0ECFFED5201C0EFFF000C010E02016F
:1018C000016FEC0E01C277F2766F796B140E786FB0
:1018D00000014AEC06F00101EC51F00B400803E076
:1018E000000E016E5AD0EC510F0B006E00345C6E8E
:1018F0005C36FC0E5C1602013C6B3B6B3E6B5CC0C5
:101900003DF20001A9DE02C0EBF101C0EAF10201E3
:10191000156B5CC014F2000123DF0101EA51EB11E9
:1019200003E0000E016E39D0010E0201826FEC0E51
:10193000816F000153DF0101E251E3110CE0E2C1CC
:10194000E9FFE3C1EAFFFCC1EFFFFDC1ECFFFEC10F
:10195000ECFFFFC1ECFF060EE425E96E000EE52169
:10196000EA6EF8C1EFFFF9C1ECFFFAC1ECFFFBC171
:10197000ECFFE6C1E9FFE7C1EAFFF5C1EFFFE8C10F
:10198000E9FFE9C1EAFF5C50EE5D006E000EEF5921
:1019900000C0EFFFEC6E010E016E0001F8EF1DF0CC
:1019A0000201796B786B776B766BD8906D316F6FC6
:1019B0006C316E6F6BC271F26AC270F26FC203F06B
:1019C0006E51D8B46F076E07031017E071C203F0B1
:1019D00070C200F0020E7027D8B0712B00C0E9FF72
:1019E00003C0EAFFECCF03F0ED52EF50762703502F
:1019F0007723000E78237923E1D76C51010B006E19
:101A0000036A005003100AE070C2E9FF71C2EAFFE6
:101A1000EF507627000E77237823792379C275F269
:101A200078C274F277C273F276C272F275C26FF244
:101A300074C26EF26E5302E16F531FE0796B786BE4
:101A40007D6B7C6B77C27BF276C27AF2026A036AA4
:101A50006E517625766F6F517721776F02507C211A
:101A6000786F03507D21796F79C275F278C274F274
:101A700077C273F276C272F2D9D777C203F0031E2F
:101A80007651FF0A016E03C002F00001000C8C9237
:101A90003A0E0201926F00017AEC02F00201926BA1
:101AA00000017AEC02F001C06CF28C8202016CC27F
:101AB00001F00001000C0201685307E1695305E1E0
:101AC000FF0E016E026EA1D017D0682D15D069539C
:101AD00013E10001DCDF02016D6B01C06CF201C09B
:101AE00003F0000E006A0006001AFF0E031A00C081
:101AF00001F003C002F089D08B6B8A6B0001C5EC4A
:101B000002F00201876B000182EC02F001C06AF270
:101B1000010E0201876F000182EC02F001C06BF23E
:101B2000100E02018D6F6AC28EF200019EEC02F06F
:101B3000110E02018D6F6BC28EF200019EEC02F05D
:101B400002016B511B081BE303E16A51F70817E31D
:101B5000010E685D006E000E6959036E00506A2721
:101B600003506B236B511A0809E2FF0A03E16A5123
:101B7000F70804E2F80E6A5F1B0E6B5B0AD0010ED9
:101B8000685D006E000E6959036E00506A270350AD
:101B90006B23120E8D6F6AC28EF200019EEC02F072
:101BA000130E02018D6F6BC28EF200019EEC02F0EB
:101BB0001F0E02018F6F300E906F0001B8EC02F023
:101BC0001F0E0201876F000182EC02F001C06CF26F
:101BD000000E020101BA010E000AD8B402D00001C1
:101BE000EFD7160E876F000182EC02F001C06AF297
:101BF000170E0201876F000182EC02F001C06BF248
:101C000002016AC201F06BC202F00001000C5C50DC
:101C100002011025126F000E1121136F156F12C2F1
:101C200014F200019DDD000C73C274F272C275F2F1
:101C300071C276F270C277F274C200F075C201F020
:101C400076C202F077C203F0000C020168C201F014
:101C500069C203F068C26AF269C26BF268C2E9FF46
:101C600069C2EAFFECCF6DF2ED52EFCF6CF26DC2BC
:101C700088F26CC287F2000178EC06F06BC2EAFFD2
:101C80006AC2E9FF02C0ECFFED5201C0EFFF020E95
:101C900002016825016E000E6921036E01C06AF21F
:101CA0006B6F020E6825E96E000E6921EA6EECCFBB
:101CB0006DF2ED52EFCF6CF26DC288F26CC287F21A
:101CC000000178EC06F06BC2EAFF6AC2E9FF02C0CD
:101CD000ECFFED5201C0EFFF040E02016825016E1A
:101CE000000E6921036E01C06AF26B6F040E682555
:101CF000E96E000E6921EA6EEFCF6CF2ECCF6DF267
:101D0000ECCF6EF2ECCF6FF26FC273F26EC272F272
:101D10006DC271F26CC270F2000186DF6BC2EAFF25
:101D20006AC2E9FF00C0EFFF01C0ECFF02C0ECFF98
:101D300003C0ECFF080E02016825016E000E692148
:101D4000036E01C06AF26B6F080E6825E96E000E23
:101D50006921EA6EEFCF6CF2ECCF6DF2ECCF6EF250
:101D6000ECCF6FF26FC273F26EC272F26DC271F29B
:101D70006CC270F2000158DF6BC2EAFF6AC2E9FF71
:101D800000C0EFFF01C0ECFF02C0ECFF03C0ECFF9E
:101D90000E0E02016825016E000E6921036E01C05E
:101DA0006AF26B6F0E0E6825E96E000E6921EA6E0D
:101DB000ECCF6DF2ED52EFCF6CF26DC288F26CC2D7
:101DC00087F2000178EC06F06BC2EAFF6AC2E9FF15
:101DD00002C0ECFFED5201C0EFFF100E02016825BA
:101DE000016E000E6921036E01C06AF26B6F100E66
:101DF0006825E96E000E6921EA6EECCF6DF2ED52B6
:101E0000EFCF6CF26DC288F26CC287F2000178EC01
:101E100006F06BC2EAFF6AC2E9FF02C0ECFFED52B6
:101E200001C0EFFF120E02016825016E000E69214C
:101E3000036E01C06AF26B6F120E6825E96E000E28
:101E40006921EA6EECCF6DF2ED52EFCF6CF26DC20C
:101E500088F26CC287F2000178EC06F06BC2EAFFF0
:101E60006AC2E9FF02C0ECFFED5201C0EFFF000CB7
:101E7000FE0E0201156F146B14510408D8A07AD01D
:101E80001451240DF350036A5F0F016E000E0322FC
:101E900001C012F203C013F212C2E9FF13C2EAFF3B
:101EA000EF500A0865E00B0E1225E96E000E1321B3
:101EB000EA6EECCF17F2ED52EFCF16F2020E0E25BE
:101EC000E96E000E0F21EA6EECCF03F0ED52EF50F9
:101ED000165D4EE10350175D4BE112C2E9FF13C2DC
:101EE000EAFFEF5202E114C215F20D0E1225E96E5F
:101EF000000E1321EA6EECCF17F2ED52EFCF16F27F
:101F00000EC2E9FF0FC2EAFFECCF03F0ED52EF5033
:101F1000165D2EE10350175D2BE1070E1225E96EC9
:101F2000000E1321EA6EEFCF18F2ECCF19F2ECCFCE
:101F30001AF2ECCF1BF2060E1025E96E000E1121ED
:101F4000EA6EEFCF00F0ECCF01F0ECCF02F0ECCF77
:101F500003F00050185D0CE10150195D09E10250D9
:101F60001A5D06E103501B5D03E114C201F06CD061
:101F7000142B82D71551FE0803E1FE0E016E64D0CA
:101F80001551240DF350036A5F0F016E000E0322FA
:101F900001C012F203C013F2010E1225166F000EDB
:101FA0001321176FEA6E16C2E9FF11C2E2FF10C2D9
:101FB000E1FF0A0E016EE6CFEEFF012EFCD70D0EFB
:101FC0001225016E000E13210EC2E9FF0FC2EAFFB7
:101FD000ECCF03F0ED52EFCF18F2EA6E01C0E9FF4B
:101FE00003C0ECFFED5218C2EFFF230E1225E96E7D
:101FF000000E1321EA6EEF960F0E1225E96E000E09
:102000001321EA6EEF3C01D016D00F0E1225E96EB7
:10201000000E1321EA6EEFCF16F216C22FF2000166
:1020200002EC00F00F0E02011225E96E000E1321E2
:10203000EA6EFF0EEF6E230E1225E96E000E1321DD
:10204000EA6EEF8215C201F00001ACEF19F0F29ACE
:1020500051C02FF250C02EF2F28A02012EC201F0BE
:102060002FC202F00001000C0F0E02012C25E96EB8
:10207000000E2D21EA6EEF3C01D01DD00F0E2C2555
:10208000E96E000E2D21EA6EEFCF2EF22EC22FF256
:10209000000102EC00F00F0E02012C25E96E000E8B
:1020A0002D21EA6EFF0EEF6E230E2C25E96E000E39
:1020B0002D21EA6EEF82070E2C25E96E000E2D21F0
:1020C000EA6EEE52EE52EC6AED52EF6AED52EF6AB2
:1020D000ED52EF6A0D0E2C25E96E000E2D21EA6EF1
:1020E000EC6AED52EF6A230E2C25E96E000E2D21CD
:1020F000EA6EEFA604D0000118EC06F00201230EF0
:102100002C25E96E000E2D21EA6EEF96210E2C256E
:10211000E96E000E2D21EA6EEC6AED521E0EEF6E96
:10212000230E2C25E96E000E2D21EA6EEF98230E6A
:102130002C25E96E000E2D21EA6EEFA006D02CC2F0
:10214000E9FF2DC2EAFFEF6A06D02CC2E9FF2DC2DB
:10215000EAFF0A0EEF6E100E2C25E96E000E2D21FF
:10216000EA6EEC6AED52EF6A0001000C1F0E0201EC
:10217000876F000182EC02F001C069F2000E0201DB
:1021800001B6010E000A02E0000E01D0010E016E40
:1021900000D00001000C010E02018B6F190E8A6F36
:1021A0000001C5EC02F0190E0201876F000182ECFC
:1021B00002F001C068F202018B6B0E0E8A6F000103
:1021C000C5EC02F00E0E0201876F000182EC02F0F6
:1021D00001C06AF20F0E0201876F000182EC02F06B
:1021E00001C06BF2010E02018B6F190E8A6F0001A4
:1021F000C5EC02F0190E0201876F000182EC02F0BB
:1022000001C06CF202016851015CD8B402D0000137
:10221000CAD78B6B0C0E8A6F0001C5EC02F00C0E56
:102220000201876F000182EC02F001C068F20D0E1E
:102230000201876F000182EC02F001C069F2020125
:1022400069516B5D16E303E16A51685D12E2685102
:102250006A5D006E69516B59036E0050FF0AF80FFA
:10226000006E1B0E035600C001F003C002F01DD02B
:102270001CD068516A5D09E169516B5D06E1F70E9A
:10228000016E1B0E026E11D010D06A51685D6C6F2A
:102290006B5169596D6F010E6C5D006E000E6D59CA
:1022A000036E00C001F0026E00D000019AEF12F040
:1022B000060E02018125876F1C0E8221886F010E98
:1022C0008725856F000E8821866F8B6B100E8A6FB5
:1022D0000001C5EC02F0100E02018D6F85C28EF276
:1022E00000019EEC02F0110E02018D6F86C28EF28B
:1022F00000019EEC02F0010E0201835D006E000EF3
:102300008459036E0050852703508623120E8D6F6B
:1023100085C28EF200019EEC02F0130E02018D6F59
:1023200086C28EF200019EEC02F01F0E02018F6F3A
:10233000300E906F0001B8EC02F01F0E0201876FA3
:10234000000182EC02F001C087F2000E020101BA26
:10235000010E000AD8B402D00001EFD7160E876F25
:10236000000182EC02F001C086F2170E0201876FB5
:10237000000182EC02F001C085F2020185C201F089
:1023800086C202F00001000C140E5C6E450E0201C4
:102390006D6F6E6B140E6B256F6F000E6C21706F7E
:1023A0005A2AD8B45B2A5BC072F25AC071F2746BBD
:1023B000736B640E756F6AC276F2786B776B1BC0B5
:1023C0007CF21AC07BF219C07AF218C079F2060EBC
:1023D0006825E96E000E6921EA6EEFCF00F0ECCFC0
:1023E00001F0ECCF02F0ECCF03F003C080F202C0AA
:1023F0007FF201C07EF200C07DF2020E826F6D0E90
:10240000816F0001EEEC0BF0020168C201F069C2BD
:1024100003F068C281F269C282F2140E6B25836FE9
:10242000000E6C21846F69C286F268C285F2876BE8
:10243000896F83C288F200019AEC08F0020E020153
:10244000826F6D0E82C28DF28C6F8F6B140E8E6F49
:10245000000175EC08F00201826B816B846B140E35
:10246000836F000125DF02C078F201C077F24FC010
:1024700081F20201836B0A0E826F000113EC08F0F7
:10248000020E0201826F770E82C28DF28C6F8F6B0B
:10249000020E8E6F000175EC08F04FC081F2020150
:1024A000836B140E826F000113EC08F0000E016EB6
:1024B000026E000C010E0201686F000157DE01522E
:1024C000F9E002013F3D08D0010E686F0001FEEC0B
:1024D00007F001C03FF202013F3D01D000D13FC2F1
:1024E00081F2836B140E826F000113EC08F033C28B
:1024F00045F232C244F235C247F234C246F239C222
:102500004BF238C24AF237C249F236C248F23DC2F3
:102510004FF23CC24EF23BC24DF23AC24CF23F0E79
:1025200002015115516FF00E5015506F3EC251F21D
:10253000000131D602C053F201C052F202015353DE
:1025400003E15251280805E2280E525F000E535B4A
:1025500002D0536B526B556B546B576B566B020E1C
:10256000696F440E686F000125EC0EF0140E020135
:102570004027000E41233EA30FD0040E4027000E3B
:102580004123020E586F040E596F5A6F5B6B0F0E8A
:1025900050156009506F04D00F0E50155009506F40
:1025A0001BC05FF21AC05EF219C05DF218C05CF287
:1025B000060E3025E96E000E3121EA6EEFCF00F0F5
:1025C000ECCF01F0ECCF02F0ECCF03F003C063F2EC
:1025D00002C062F201C061F200C060F2646B060EDC
:1025E000656F41C267F240C266F267C288F266C296
:1025F00087F2000178EC06F002C067F201C066F2D3
:10260000020E0201696F5C0E69C26BF26A6F6D6B3C
:102610000C0E6C6F0001D0EC0CF001C054F2020102
:10262000541F02C055F2551F55C243F254C242F224
:1026300031C269F230C268F2060E6A6F41C26CF2B2
:1026400040C26BF20001A0DE020E0201696F440E6F
:1026500069C28DF28C6F8F6B140E8E6F000175EC5A
:1026600008F002013EA30DD0020E696F580E69C238
:102670008DF28C6F8F6B040E8E6F000175EC08F07D
:1026800002013FC281F2836B140E826F000113ECD2
:1026900008F041C269F240C268F25BEC0DF002C082
:1026A00043F201C042F23FC281F20201836B240E69
:1026B000826F000113EC08F043C28BF268EC08F063
:1026C00042C28BF268EC08F03FC281F20201836BD8
:1026D000826B000113EC08F001EC09F0020100012B
:1026E000000C02010E51240DF350036A5F0F016EBE
:1026F000000E032201C025F203C026F2276B1E0E36
:102700002525E96E000E2621EA6EEF6A1F0E2525AB
:10271000016E000E2621036E01C02CF22D6F000108
:1027200096DC2DC2EAFF2CC2E9FF02C0ECFFED529D
:1027300001C0EFFF210E02012525E96E000E2621C2
:10274000EA6EEC6AED521E0EEF6E0D0E1125E96E6B
:10275000000E1221EA6EEFA41ED0000118EC06F064
:10276000020125C201F026C203F025C22CF226C2C6
:102770002DF2230E2525E96E000E2621EA6EEFA02C
:1027800002D0000E01D0010E2DC2EAFF2CC2E9FFDB
:10279000EF6EE9EF18F0160E2525E96E000E2621E2
:1027A000EA6EEFCF00F0ECCF01F0ECCF02F0ECCF0F
:1027B00003F003C01CF202C01BF201C01AF200C0F9
:1027C00019F20E0E1125E96E000E1221EA6EECCF01
:1027D00003F0ED52EFCF2CF203C02DF22E6B2F6BD6
:1027E000080E1125E96E000E1221EA6EEFCF00F0FF
:1027F000ECCF01F0ECCF02F0ECCF03F00050195D0C
:10280000006E01501A59016E02501B59026E03509E
:102810001C59036E00502C5D306F01502D59316FE3
:1028200002502E59326F03502F59336F100E252549
:10283000E96E000E2621EA6EECCF03F0ED52EFCFE9
:1028400000F003C001F0026A036A0050305D286F97
:1028500001503159296F025032592A6F03503359B0
:102860002B6F2BBF01D00AD0140E2525E96E000E68
:102870002621EA6EEC6AED52EF6A0AD0140E252585
:10288000E96E000E2621EA6E15C2EFFF16C2ECFFBC
:1028900025C2E9FF26C2EAFFEF2CC3D00D0E112599
:1028A000E96E000E1221EA6EEFB212D0000118ECB0
:1028B00006F00D0E02011125E96E000E1221EA6EDE
:1028C000EFA804D0040E276FADEF18F0E9EF18F071
:1028D0001A0E2525016E000E262101C02CF22D6F47
:1028E000040E1125E96E000E1221EA6EEFCF2EF2D2
:1028F000ECCF2FF2ECCF30F2ECCF31F213512E258A
:10290000326F14512F21336F000E3021346F000EBF
:102910003121356F010E3225006E000E3321016E1C
:10292000000E3421026E000E35212DC2EAFF2CC2AA
:10293000E9FF00C0EFFF01C0ECFF02C0ECFFEC6E4E
:102940001A0E2525E96E000E2621EA6EEFCF00F063
:10295000ECCF01F0ECCF02F0ECCF03F003C018F2A3
:1029600002C017F201C016F200C015F20D0E1125BB
:10297000E96E000E1221EA6EEFB80ED025C2E9FF13
:1029800026C2EAFF020EEF6E000118EC06F0120EEE
:102990000201276FADEF18F025C2E9FF26C2EAFF5A
:1029A000030EEF6E100E276F140E2525016E000E1C
:1029B0002621036E2D6F0E0E1125E96E000E1221D9
:1029C000EA6EECCF03F0ED52EFCF2EF22DC2EAFF0C
:1029D00001C0E9FF03C0ECFFED522EC2EFFF13511F
:1029E00014111AE0230E2525E96E000E2621EA6E49
:1029F000EF86120E2525E96E000E2621EA6E14C21E
:102A0000ECFFED5213C2EFFF230E2525E96E000EF9
:102A10002621EA6EEF8404D0000118EC06F00201D2
:102A20009CD325C2E9FF26C2EAFFEF52D8A4CBD03F
:102A3000000118EC06F00D0E02011125E96E000EE2
:102A40001221EA6EEFB203D0040E276F86D31A0E5E
:102A50002525016E000E262101C02CF22D6F040EDB
:102A60001125E96E000E1221EA6EEFCF2EF2ECCFA7
:102A70002FF2ECCF30F2ECCF31F213512E25326F22
:102A800014512F21336F000E3021346F000E31218D
:102A9000356F010E3225006E000E3321016E000EDF
:102AA0003421026E000E35212DC2EAFF2CC2E9FF4F
:102AB00000C0EFFF01C0ECFF02C0ECFFEC6E140E93
:102AC0002525016E000E2621036E2D6F0E0E112599
:102AD000E96E000E1221EA6EECCF03F0ED52EFCF5B
:102AE0002EF22DC2EAFF01C0E9FF03C0ECFFED5258
:102AF0002EC2EFFF010E25252C6F000E26212D6F13
:102B0000EA6E2CC2E9FF10C2E2FF0FC2E1FF0A0E1B
:102B1000016EE6CFEEFF012EFCD70D0E2525016ECE
:102B2000000E262111C2E9FF12C2EAFFECCF03F02A
:102B3000ED52EFCF2EF2EA6E01C0E9FF03C0ECFFC9
:102B4000ED522EC2EFFF25C2E9FF26C2EAFF020EB8
:102B5000EF6E160E2525E96E000E2621EA6EEE5266
:102B6000EE52EE52EDCF03F0EDCF02F0EDCF01F0DB
:102B7000EFCF00F0010EEE2605E1EE2A03E1EE2A8A
:102B800001E1ED2A03C01CF202C01BF201C01AF2DF
:102B900000C019F21A0E2525E96E000E2621EA6EF4
:102BA000EFCF00F0ECCF01F0ECCF02F0ECCF03F070
:102BB00003C018F202C017F201C016F200C015F2ED
:102BC000120E276FCAD21A0E2525E96E000E262195
:102BD000EA6EEFCF00F0ECCF01F0ECCF02F0ECCFDB
:102BE00003F003C020F202C01FF201C01EF200C0B9
:102BF0001DF2160E2525E96E000E2621EA6EEFCF96
:102C000000F0ECCF01F0ECCF02F0ECCF03F003C00A
:102C100024F202C023F201C022F200C021F2040E0D
:102C20001125E96E000E1221EA6EEFCF00F0ECCF15
:102C300001F0ECCF02F0ECCF03F003C018F202C0B9
:102C400017F201C016F200C015F2026A036A1351AE
:102C50001527145116230250172303501823160E5C
:102C60002525E96E000E2621EA6EEFCF00F0ECCFAD
:102C700001F0ECCF02F0ECCF03F003C01CF202C075
:102C80001BF201C01AF200C019F2040E1125E96E00
:102C9000000E1221EA6EEFCF2CF2ECCF2DF2ECCF2A
:102CA0002EF2ECCF2FF21D512C5DD8A448D21E512C
:102CB0002D5DD8A444D21F512E5DD8A440D22051FE
:102CC0002F5DD8A43CD225C2E9FF26C2EAFFEF500F
:102CD000020843E10D0E1125E96E000E1221EA6E85
:102CE000EFA836D01A0E2525E96E000E2621EA6ED1
:102CF00015C2EFFF16C2ECFF17C2ECFF18C2ECFFC3
:102D000025C2E9FF26C2EAFF030EEF6E135114112C
:102D10001AE0230E2525E96E000E2621EA6EEF86C5
:102D2000120E2525E96E000E2621EA6E14C2ECFF74
:102D3000ED5213C2EFFF230E2525E96E000E26216A
:102D4000EA6EEF8404D0000118EC06F0020104D012
:102D5000000118EC06F00201F1D11A0E2525E96EEA
:102D6000000E2621EA6E15C2EFFF16C2ECFF17C255
:102D7000ECFF18C2ECFF25C2E9FF26C2EAFFEF50C4
:102D80000308D8A4E4D00D0E1125E96E000E12211F
:102D9000EA6EEFA82ED0230E2525E96E000E26211F
:102DA000EA6EEFB226D00F0E2525E96E000E262121
:102DB000EA6EEF3C01D01DD00F0E2525E96E000E06
:102DC0002621EA6EEFCF2CF22CC22FF2000102EC8A
:102DD00000F00F0E02012525E96E000E2621EA6E95
:102DE000FF0EEF6E230E2525E96E000E2621EA6EFA
:102DF000EF820D0E1125E96E000E1221EA6EEFA092
:102E00005AD0110E276F160E2525E96E000E2621C9
:102E1000EA6EEE52EE52EE52EDCF03F0EDCF02F03D
:102E2000EDCF01F0EFCF00F0010EEE2605E1EE2A26
:102E300003E1EE2A01E1ED2A03C01CF202C01BF2FD
:102E400001C01AF200C019F21A0E2525E96E000E13
:102E50002621EA6E010EEF24006E000EEC20016EBA
:102E6000000EEC20026E000EEC20ED52ED52ED5201
:102E700000C0EFFF01C0ECFF02C0ECFFEC6E1A0EC9
:102E80002525E96E000E2621EA6EEFCF00F0ECCF8B
:102E900001F0ECCF02F0ECCF03F003C018F202C057
:102EA00017F201C016F200C015F225C2E9FF26C2D2
:102EB000EAFF090EEF6E1351141144E0230E25258D
:102EC000E96E000E2621EA6EEFB61BD0230E2525F3
:102ED000E96E000E2621EA6EEF86120E2525E96EB8
:102EE000000E2621EA6E14C2ECFFED5213C2EFFF72
:102EF000230E2525E96E000E2621EA6EEF84278930
:102F000020D0160E2525E96E000E2621EA6E21C27C
:102F1000EFFF22C2ECFF23C2ECFF24C2ECFF1A0E2B
:102F20002525E96E000E2621EA6E1DC2EFFF1EC2A6
:102F3000ECFF1FC2ECFF20C2ECFF000118EC06F012
:102F4000020104D0000118EC06F00201F7D025C2FE
:102F5000E9FF26C2EAFFEF50090815E1000118EC6D
:102F600006F00D0E02011125E96E000E1221EA6E27
:102F7000EFA808D026C22DF225C22CF2000134ECB5
:102F800010F00201DBD025C2E9FF26C2EAFFEF50B4
:102F900004086AE1000118EC06F00D0E020111258B
:102FA000E96E000E1221EA6EEFA04DD0100E276FD1
:102FB0001A0E2525E96E000E2621EA6E010EEF2479
:102FC000006E000EEC20016E000EEC20026E000E72
:102FD000EC20ED52ED52ED5200C0EFFF01C0ECFFCE
:102FE00002C0ECFFEC6E1A0E2525E96E000E2621BC
:102FF000EA6EEFCF00F0ECCF01F0ECCF02F0ECCFB7
:1030000003F003C018F202C017F201C016F200C0AC
:1030100015F20D0E1125E96E000E1221EA6EEFA8D1
:1030200009D026C22DF225C22CF2000134EC10F09A
:1030300008D0020125C2E9FF26C2EAFF060EEF6EA4
:10304000000110D002010D0E1125E96E000E1221B3
:10305000EA6EEFA806D025C2E9FF26C2EAFF050EF8
:10306000EF6E00016AD0020125C2E9FF26C2EAFF25
:10307000EF50050848E1000118EC06F00D0E0201C2
:103080001125E96E000E1221EA6EEFA03BD0100E62
:10309000276F1A0E2525E96E000E2621EA6E010E15
:1030A000EF24006E000EEC20016E000EEC20026E8C
:1030B000000EEC20ED52ED52ED5200C0EFFF01C0CA
:1030C000ECFF02C0ECFFEC6E1A0E2525E96E000E37
:1030D0002621EA6EEFCF00F0ECCF01F0ECCF02F04A
:1030E000ECCF03F003C018F202C017F201C016F2D1
:1030F00000C015F226C22DF225C22CF2000134ECDC
:1031000010F002011BD025C2E9FF26C2EAFFEF50F2
:10311000060814E1000118EC06F00D0E020111255D
:10312000E96E000E1221EA6EEFA808D026C22DF239
:1031300025C22CF2000134EC10F002010ED0000187
:1031400018EC06F0100E0201276F20C218F21FC201
:1031500017F21EC216F21DC215F227533AE0020EF4
:103160001125E96E000E1221EA6EECCF2DF2ED5220
:10317000EFCF2CF211C2E9FF12C2EAFFECCF2FF21F
:10318000ED52EFCF2EF210C231F20FC230F22DC24B
:1031900033F22CC232F22FC235F22EC234F21CC2EC
:1031A00039F21BC238F21AC237F219C236F218C20B
:1031B0003DF217C23CF216C23BF215C23AF227C2E8
:1031C0003EF2FF0E3F6F416B406B00015AEC12F074
:1031D00002010001C3EF19F0060E0101E225E96EBC
:1031E000000EE321EA6EEFCF00F0ECCF01F0ECCF60
:1031F00002F0ECCF03F003C0FFF102C0FEF101C00A
:10320000FDF100C0FCF1E4C1E9FFE5C1EAFFEFCF49
:1032100000F0ECCF01F0ECCF02F0ECCF03F003C0F4
:1032200003F202C002F201C001F200C000F202018A
:10323000046B060E056FE7C107F2E6C106F207C28E
:1032400088F206C287F2000178EC06F002C007F2AD
:1032500001C006F2010E02010F6FFC0E0FC26BF2ED
:103260006A6F6D6B0C0E6C6F0001D0EC0CF001C03E
:1032700009F20201091F02C00AF20A1FE7C169F23E
:10328000E6C168F200015BEC0DF002C00CF201C077
:103290000BF202010C51095D03E10B510A5D07E0DD
:1032A000000118EC06F0010E016E74D00201116BE2
:1032B000106B000107EC0EF0010E02010F6FE80E1B
:1032C0000FC277F2766F796B140E786F00014AECBB
:1032D00006F0010E0201696FE80E686F000125EC2F
:1032E0000EF00101F4390F0B006E003402010F6F74
:1032F0000F37FC0E0F17140E0F5D0D6F0D510101EE
:10330000E65D02010E6F000E0101E75902010F6F29
:10331000140E0E5D0101E66F000E02010F5901014E
:10332000E76FF4390F0B006E003402010F6F0F3797
:10333000FC0E0F17116B0FC210F2000107EC0EF01C
:10334000010E02010F6FE80E0E6FE3C111F2E2C130
:1033500010F2000138EF0FF001C008F2020108512D
:10336000FE0813E008C20EF2E3C110F2E2C10FF250
:10337000010E126FE80E116FE7C114F2E6C113F2ED
:10338000000171EF13F004D00201000118EC06F007
:10339000010E016E24EF1EF0040E02013A25016EAB
:1033A000000E3B21036E01C03CF23D6F040E3A2536
:1033B000E96E000E3B21EA6EECCF3FF2ED52EFCF0B
:1033C0003EF23FC288F23EC287F2000178EC06F07E
:1033D0003DC2EAFF3CC2E9FF02C0ECFFED5201C072
:1033E000EFFF060E02013A25016E000E3B21036E2F
:1033F00001C03CF23D6F060E3A25E96E000E3B21FE
:10340000EA6EECCF3FF2ED52EFCF3EF23FC288F2D0
:103410003EC287F2000178EC06F03DC2EAFF3CC2F2
:10342000E9FF02C0ECFFED5201C0EFFF020E020106
:103430003A25016E000E3B21036E01C03CF23D6F48
:10344000020E3A25E96E000E3B21EA6EECCF3FF208
:10345000ED52EFCF3EF23FC288F23EC287F200014A
:1034600078EC06F03DC2EAFF3CC2E9FF02C0ECFF87
:10347000ED5201C0EFFF000C010E02013B6FEE0E9A
:103480003BC277F2766F796B080E786F00014AECD9
:1034900006F00201396B386BE9C103F0E8C1E9FFBE
:1034A000E9C1EAFFEFCF3AF202013C6B140E3B6F29
:1034B0003E6B3AC23DF200012CEC0BF002C037F239
:1034C00001C036F20101E8C1E9FFE9C1EAFF080ED7
:1034D000EF5CEF6EE9C103F0E8C1E9FFE9C1EAFF83
:1034E000EFCF3AF2E7C177F2E6C176F20201796BEB
:1034F0003AC278F200014AEC06F0010E02013B6F7D
:10350000EE0E3A6F000148DF0101E4C1E9FFE5C1B9
:10351000EAFFEEC1EFFFEAC1E9FFEBC1EAFFF3C149
:10352000ECFFED52F2C1EFFFECC1E9FFEDC1EAFFA4
:10353000F5C1ECFFED52F4C1EFFF02013851365DE9
:1035400003E13951375D02E0000E00D03851365D9D
:1035500003E13951375D02E0000E01D0010E016E2A
:1035600000014CEF1EF0010E0201686F0001FEEC3D
:1035700007F001C036F20201363D01D07ED036C2DE
:1035800081F2836B140E826F000113EC08F0036A62
:103590000101E751080F0201346F000E0320356F5F
:1035A0000101ED6BE4C1ECF1EF6BEE6BE9C1F1F100
:1035B000E8C1F0F1EBC1F3F1EAC1F2F1010EEA6EFC
:1035C000F40EE96EE6C1E2FFE5C1E1FFE751016EED
:1035D00004E0E6CFEEFF012EFCD7010E02013B6FA7
:1035E000EC0E3A6F0001D8DE080E0101E72502015A
:1035F000386B376FE3C169F2E2C168F2010E6A6F9E
:1036000038C26CF237C26BF20001C4EC11F0010E4B
:103610000201386FEC0E38C28DF28C6F35C28FF21A
:1036200034C28EF2000175EC08F00201826B140EB8
:10363000816F35C284F234C283F2000158EC11F07C
:1036400002C0EFF101C0EEF136C281F20201836BDC
:10365000160E826F000113EC08F0010E0201386FA4
:10366000EE0E38C28DF28C6F8F6B020E8E6F0001E2
:1036700075EC08F001EC09F00201000178EF1EF092
:103680000101ED6BE26BE2510408D8A049D2E2518E
:10369000240DF350036A5F0F016E000E032201C078
:1036A000E7F103C0E8F1230EE725E96E000EE821FB
:1036B000EA6EEFB608D0230EE725E96E000EE8218A
:1036C000EA6EEFA801D02AD2E7C1E9FFE8C1EAFF1C
:1036D000EF500A0812E0E7C1E9FFE8C1EAFFEF5244
:1036E0000DE1230EE725E96E000EE821EA6E000EDB
:1036F000EFB0010E010B010801E110D2E7C1E9FFB3
:10370000E8C1EAFFEF5003080DE1230EE725E96E5B
:10371000000EE821EA6E000EEFB0010E010B010869
:1037200001E1FCD1000127EC10F002C0E6F101C07C
:10373000E5F11F0E0101E725E96E000EE821EA6EB2
:10374000ECCF03F0ED52EFCF01F0E651035C04E360
:1037500005E10150E55D02E3000E01D0010E036AB0
:1037600003101DE01F0EE725E96E000EE821EA6E4A
:10377000ECCF03F0ED52EF50FF08EE6FFF0E035455
:10378000EF6FE551EE25F06FE651EF21F16F010E7D
:10379000F025016E000EF121036E015010D01F0EB6
:1037A000E725E96E000EE821EA6EECCF03F0ED525A
:1037B000EF50E55D006E0350E659036E0050E36F75
:1037C00003C0E4F1210EE725E96E000EE821EA6E60
:1037D000ECCF03F0ED52EFCF01F0E451035C05E3D1
:1037E00003E1E351015C01E399D1010E0201686F2D
:1037F0000001B6EC10F0015201E192D11F0E01015F
:10380000E725016E000EE821036E01C0EEF1EF6FB7
:10381000000127EC10F0EFC1EAFFEEC1E9FF02C0A2
:10382000ECFFED5201C0EFFF210E0101E725E96E2B
:10383000000EE821EA6ED890EF34026EEC34036E8D
:103840000250ED52EF6E03C0ECFF1E0EE725E96E4D
:10385000000EE821EA6EEF2AE7C1E9FFE8C1EAFFBE
:10386000010EEF5CF70FD8B0C8D0090F000193EF3D
:103870001DF0020E0101ED6FC0D01E0E0101E72503
:10388000E96E000EE821EA6EEF50030803E3120E22
:10389000ED6F16D0230EE725E96E000EE821EA6EE3
:1038A000EFA006D0E7C1E9FFE8C1EAFFEF6A08D060
:1038B000020EED6FE7C1E9FFE8C1EAFF010EEF6E0E
:1038C0009CD01E0E0101E725E96E000EE821EA6E8C
:1038D000EF50030822E30F0EE725E96E000EE82102
:1038E000EA6EEF3C01D014D00F0EE725E96E000E12
:1038F000E821EA6EEFCFEEF1EEC181F20201836BB7
:10390000826B000113EC08F001EC09F004D0010116
:10391000100EED6F000128D001010F0EE725E96EB2
:10392000000EE821EA6EEF3C01D016D00F0EE7251D
:10393000E96E000EE821EA6EEFCFEEF1EEC12FF254
:10394000000102EC00F00F0E0101E725E96E000E08
:10395000E821EA6EFF0EEF6E110EED6FE7C1E9FF91
:10396000E8C1EAFF040EEF6E010147D01E0E01010F
:10397000E725E96E000EE821EA6EEF50030803E345
:10398000010EED6F08D0E8C12DF2E7C12CF2000165
:1039900034EC10F0010131D0E8C12DF2E7C12CF276
:1039A00034EC10F0010129D0E8C12DF2E7C12CF26E
:1039B00034EC10F0010121D0010E0101ED6FE7C1DF
:1039C000E9FFE8C1EAFF090EEF6E17D01E0E0101F4
:1039D000E725E96E000EE821EA6EEF50030803E3E5
:1039E000010EED6F08D0E8C12DF2E7C12CF2000105
:1039F00034EC10F0010101D00101ED53D8B48ED0A8
:103A0000EDA917D0160EE725E96E000EE821EA6E43
:103A1000EFCF00F0ECCF01F0ECCF02F0ECCF03F0F1
:103A200003C0ECF102C0EBF101C0EAF100C0E9F122
:103A300021D0160EE725E96E000EE821EA6EEE525F
:103A4000EE52EE52EDCF03F0EDCF02F0EDCF01F0EC
:103A5000EFCF00F0010EEE2605E1EE2A03E1EE2A9B
:103A600001E1ED2A03C0ECF102C0EBF101C0EAF183
:103A700000C0E9F1010EE725016E000EE821036E9A
:103A800001C0EEF1EF6F0B0EE725E96E000EE821A5
:103A9000EA6EECCFF1F1ED52EFCFF0F10D0EE7252C
:103AA000E96E000EE821EA6EECCFF3F1ED52EFCFB4
:103AB000F2F11A0EE725E96E000EE821EA6EEFCF6B
:103AC000F4F1ECCFF5F1ECCFF6F1ECCFF7F103C068
:103AD00031F201C030F2F1C133F2F0C132F2F3C180
:103AE00035F2F2C134F2ECC139F2EBC138F2EAC17D
:103AF00037F2E9C136F2F7C13DF2F6C13CF2F5C149
:103B00003BF2F4C13AF2EDC13EF2FF0E02013F6F0B
:103B1000416B406B00015AEC12F00101E22BB3D56E
:103B2000000181EF1EF0F2CF0EF0F29EE824F76A5A
:103B3000F7364B0FF66E3B0EF7220A00F550FA6E81
:103B40000800F5500EBEF28EF96E72387A38C2381F
:103B50006C3998399839A839B839CC390101E191D3
:103B6000E1911F51F90FD8B0C8D0070F000183EFC2
:103B70001EF0010E0101E36F200EE26F010EE56FF2
:103B8000E00EE46F000183EF06F0015203E1010152
:103B9000B4D000010101E181E05303E1020E1F6F87
:103BA0000AD0E051060803E1050E1F6F04D00001A2
:103BB00018EC06F00101A1D0E3EF0AF0015202E097
:103BC00001011F6B010199D0010E0101E36FDC0EB1
:103BD000E26F010EE56F200EE46F010EE76FE00E5D
:103BE000E66F010EE96F2A0EE86F00015EEF0CF040
:103BF000015215E00101E181E02D03D0030E1F6F9A
:103C00000CD0E051060803E1060E1F6F06D0E191CB
:103C1000000118EC06F001011F6B05D0000118EC43
:103C200006F001011F6B69D0010E0101E36F200E48
:103C3000E26F010EE56FDC0EE46F2BC1E7F12AC1E4
:103C4000E6F10001ECEF18F0015202E001011F6BF8
:103C5000010153D001011F6B2B5327E12A51480862
:103C600024E3010EE36F2A0EE26F010EE56FE00E12
:103C7000E46F010EE76F2C0EE66FE3C1E9F1E2C1DC
:103C8000E8F1010EEB6F6C0EEA6F010EED6F6E0E38
:103C9000EC6F00013CEF1AF0015208E00101E05125
:103CA000080803E1E181040E1F6F000118EC06F023
:103CB000010123D0010E0201686F0001B6EC10F083
:103CC000015218E0010E0101E36F200EE26FE46B78
:103CD000010EE66F2C0EE56F2AC1E7F16DC1E9F127
:103CE0006CC1E8F16FC1EBF16EC1EAF100013BD4A8
:103CF00001011F6B010101D00101E1B131D70001C8
:103D0000BFD44BEF28F0F2CF0EF0F29EE824F76A12
:103D1000F7362B0FF66E3D0EF7220A00F550FA6EBD
:103D20000800F5500EBEF28EF96E723B723BC83B36
:103D3000543CB43CB83B283C0101E46BE45104081A
:103D400074E3E451240DF350036A5F0F016E000E1B
:103D5000032201C0E5F103C0E6F1E5C1E9FFE6C1D8
:103D6000EAFFEF500A085FE1E5C1E9FFE6C1EAFFBB
:103D7000EF6A0B0EE525E96E000EE621EA6EE3C15F
:103D8000ECFFED52E2C1EFFF0D0EE525E96E000EEE
:103D9000E621EA6EEC6AED52EF6A070EE525E96E60
:103DA000000EE621EA6EEE52EE52EC6AED52EF6A38
:103DB000ED52EF6AED52EF6A230EE525E96E000E33
:103DC000E621EA6EEF80230EE525E96E000EE6217E
:103DD000EA6EEF960F0EE525E96E000EE621EA6E1B
:103DE000EF3C01D016D00F0EE525E96E000EE6215E
:103DF000EA6EEFCFE7F1E7C12FF2000102EC00F02D
:103E00000F0E0101E525E96E000EE621EA6EFF0EB8
:103E1000EF6E230EE525E96E000EE621EA6EEF82D5
:103E2000E4C101F004D0E42B89D7FE0E016E00013D
:103E300065EF24F00101E151240DF350E36BE26FD3
:103E40005F0EE225E96E000EE321EA6EEF500308F3
:103E500002E0000E01D0010E016E0001000C010114
:103E6000F951240DF350FB6BFA6F230EFA25FC6F0A
:103E7000000EFB21FD6F5F0EFC25E96E000EFD219B
:103E8000EA6E000EEFB6010E016E0001C0EF22F0E7
:103E90000101F951240DF350036A5F0F016E000E0A
:103EA000032201C0FCF103C0FDF1230EFC25E96EE5
:103EB000000EFD21EA6EEFA652D0230EFC25E96E1E
:103EC000000EFD21EA6EEFA40FD00201116B140E5B
:103ED000106F000107EC0EF0230E0101FC25E96EC6
:103EE000000EFD21EA6EEF94120EFC25E96E000E25
:103EF000FD21EA6EECCFFFF1ED52EFCFFEF1FE5364
:103F000010E1FF530EE1000118EC06F0230E010151
:103F1000FC25E96E000EFD21EA6EEF96000E016EA3
:103F200020D0120EFC25E96E000EFD21EA6EFF0E78
:103F3000EF2602E2EE52ED06FBC103F0FAC1FEF1FC
:103F4000FBC1FFF1000147EC0DF0FFC1EAFFFEC12C
:103F5000E9FF01C0EFFF010E016E010102D0000E6A
:103F6000016E0001CBEF22F0FAC1FCF1F9C1FBF1C7
:103F7000FCC103F00101FBC1E9FFFCC1EAFFEF5204
:103F800006E0FB2BD8B4FC2B0001F2D70101F9515C
:103F9000FB5D006EFA51FC59036E00C001F0000198
:103FA000000C02010851240DF3500A6B096F140E26
:103FB0000925016E000E0A21036E01505F0FE96EA4
:103FC000000E0320EA6EECCF0CF2ED52EFCF0BF2B5
:103FD0000B5305E10C5303E1000E016E31D0085183
:103FE000240DF3500A6B096F0F0E0925016E000EA8
:103FF0000A21036E01505F0FE96E000E0320EA6E86
:10400000EF3C08D0686B0001B6EC10F001500201E3
:1040100017D016D00851240DF3500A6B096F230EE8
:1040200009250B6F000E0A210C6F5F0E0B25E96E40
:10403000000E0C21EA6E000EEFB2010E016E00D0F0
:104040000001000C0101FE51016AFD5D03E2FDC1AA
:1040500000F00CD0006A080EFF6FFD370036FE51ED
:10406000005CD8B0006E0136FF2FF7D70001000CBE
:104070000150FBC1FDF1640E0101FE6F0001E2DFA2
:1040800000C0FBF10150300E08E10101FCA310D08B
:10409000FCB70ED0FCB9200E04D00101FC97FC99AE
:1040A000FC81012601C0FDF100010DEC02F00101CF
:1040B000FBC1FDF10A0EFE6F0001C4DF00C0FBF181
:1040C0000150300E08E10101FCB70BD0FCA109D072
:1040D000FCB9200E0001012601C0FDF10DEC02F03B
:1040E0000101300EFB27FBC1FDF100010DEC02F0D8
:1040F00047EF23F003C208F254DF015204E1000E3F
:10410000016E026E73D002010351240DF350096B4E
:10411000086F0F0E0825016E000E0921036E015075
:104120005F0FE96E000E0320EA6EEF3C03D0056BD3
:10413000046B18D00351240DF350096B086F100E57
:104140000825016E000E0921036E01505F0FE96E14
:10415000000E0320EA6EECCF03F0ED52EFCF04F235
:1041600003C005F2CA0ED8800455066F030E05552C
:10417000076F0351240DF350096B086F140E0825C7
:10418000016E000E0921036E01505F0FE96E000EF3
:104190000320EA6EECCF03F0ED52EFCF01F00350B5
:1041A000075D1AE303E10651015C16E20351240D99
:1041B000F3500B6B0A6F140E0A25016E000E0B21D3
:1041C000036E01505F0FE96E000E0320EA6EECCF24
:1041D00003F0ED52EF5003D007C203F00651066F13
:1041E00003C007F206C201F007C202F000014DEF62
:1041F00022F002010351240DF350036A5F0F016E98
:10420000000E032201C004F203C005F20F0E0425C4
:10421000E96E000E0521EA6EEF3C03D0000E016E40
:10422000CBD0230E0425E96E000E0521EA6E000EA8
:10423000EFB2010E010B03E1000E016EBDD0010EC5
:104240000425016E000E0521036E01C006F2076F02
:104250000B0E0425E96E000E0521EA6EECCF09F283
:10426000ED52EFCF08F20D0E0425E96E000E052188
:10427000EA6EECCF0BF2ED52EFCF0AF2160E0425E8
:10428000E96E000E0521EA6EEFCF0CF2ECCF0DF2D5
:10429000ECCF0EF2ECCF0FF21A0E0425E96E000EF1
:1042A0000521EA6EEFCF10F2ECCF11F2ECCF12F253
:1042B000ECCF13F20F0E0425E96E000E0521EA6E15
:1042C000EFCF14F2100E0425E96E000E0521EA6E00
:1042D000ECCF16F2ED52EFCF15F203C031F201C070
:1042E00030F209C233F208C232F20BC235F20AC20E
:1042F00034F20FC239F20EC238F20DC237F20CC2DC
:1043000036F213C23DF212C23CF211C23BF210C2AD
:104310003AF2180E3E6F14C23FF216C241F215C2B5
:1043200040F200015AEC12F0160E02010425016E53
:10433000000E0521036E01C006F2076FEA6E01C090
:10434000E9FFEFCF08F2ECCF09F2ECCF0AF2ECCFA5
:104350000BF2100E0425E96E000E0521EA6EECCF7B
:1043600003F0ED52EFCF00F003C001F0026A036AE0
:1043700008510026095101220A5102220B51032241
:1043800007C2EAFF06C2E9FF00C0EFFF01C0ECFF71
:1043900002C0ECFF03C0ECFF230E0425E96E000E03
:1043A0000521EA6EEF92230E0425E96E000E052129
:1043B000EA6EEF98010E016E0001000C0101FA5146
:1043C000240DF350036A5F0F016E000E032201C03B
:1043D000FFF103C000F2140EFF25E96E000E02018A
:1043E0000021EA6EECCF04F2ED52EFCF03F203535B
:1043F00006E1045304E1000E016E026EB8D00F0E08
:104400000101FF25E96E000E02010021EA6EEF3C7A
:1044100040D00F0E0101FF25016E000E02010021A8
:10442000036E01C003F2046F686B0001FEEC07F03D
:1044300004C2EAFF03C2E9FF01C0EFFF0F0E010152
:10444000FF25E96E000E02010021EA6EEF3C04D068
:10445000000E016E026E8BD0100E0101FF25E96E79
:10446000000E02010021EA6EEC6AED52EF6A0F0EB7
:104470000101FF25E96E000E02010021EA6EEFCF77
:1044800003F203C281F2836B280E826F000113ECEA
:1044900008F0FAC103F200012DD602C002F201C0F9
:1044A00001F2230E0101FF25E96E000E0201002139
:1044B000EA6EEF8802C203F00151D8B40207010787
:1044C000031036E00101FCC103F0FB51FB2BD8B413
:1044D000FC2BE96E03C0EAFFEFCF03F203C28BF2BD
:1044E000000168EC08F0140E0101FF25E96E000ED2
:1044F00002010021EA6E010EEF5C006E000EEC5826
:10450000036E0050ED52EF6E03C0ECFF100E010180
:10451000FF25E96E000E02010021EA6E010EEF2474
:10452000016E000EEC20ED5201C0EFFFEC6EC2D721
:10453000100E0101FF25E96E000E02010021EA6E56
:10454000ECCF04F2ED52EFCF03F20451020809E27E
:10455000FF0A03E10351C90804E2FAC103F20001B2
:1045600048DE0101FDC101F0FEC102F002010001BF
:104570005CEF23F00101F86BE1C1F9F100016FD4A8
:10458000015242E0E1C1F9F1010E0101FB6FE30EBE
:10459000FA6F00017DD4015237E00101FA6BE3C1EB
:1045A000F9F10001E1DC01500B0800E30101E251E7
:1045B000140DF350FA6BF96FF851F82B036AF925D3
:1045C000016EFA5103220150900FE96E010E032093
:1045D000EA6EE3C1EFFFF851130802E2130EF86F21
:1045E000E251140DF350FA6BF96F036AF851F92593
:1045F000016EFA5103220150900FE96E010E032063
:10460000EA6EEF6A0001BED780B859D0036A010193
:10461000E251BA0FE96E010E0320EA6EEF52D8B4F0
:1046200002D000014CD0E1C108F20001BADC015215
:1046300046E0036A0101E251BA0FE96E010E032060
:10464000EA6E010EEF6E036AE251B80FE96E010ED9
:104650000320EA6EEF50EF2AF96F010EBD6FE40EF2
:10466000BC6FFA6BFA5100015EEC00F00101FA2B0D
:10467000006EFD6F00010DEC02F0090E0101FA5D04
:10468000F1E1F9C1FBF11B0EFC6F0001F1D4010E49
:104690000101FA6FE40EF96F000166DC01C0F9F167
:1046A000E1C1FAF1010E0101FC6FE40EFB6FFE6B3C
:1046B00001C0FDF1000182D6E1C103F29ADD80A8BC
:1046C0000AD0036A0101E251BA0FE96E010E03201C
:1046D000EA6EEF6A0001000E016E68EF25F001013D
:1046E000E451240DF350036A5F0F016E000E0322A4
:1046F00001C0E5F103C0E6F1230EE525E96E000EE9
:10470000E621EA6EEFB603D0000E016E0DD0000177
:1047100018EC06F0230E0101E525E96E000EE621F6
:10472000EA6EEF96010E016E0001BEEF23F001016B
:10473000E151240DF350036A5F0F016E000E032256
:1047400001C0E2F103C0E3F1E2C1E9FFE3C1EAFF26
:10475000EF5003080FE0E2C1E9FFE3C1EAFFEF50C9
:10476000020808E0E3C12DF2E2C12CF2000134ECB2
:1047700010F07BD0E1C1E4F10001B1D7010E0101DD
:10478000E225016E000EE321036E01C0E4F1E56F46
:104790000B0EE225E96E000EE321EA6EECCFE7F1A5
:1047A000ED52EFCFE6F10D0EE225E96E000EE321AA
:1047B000EA6EECCFE9F1ED52EFCFE8F1160EE2250B
:1047C000E96E000EE321EA6EEFCFEAF1ECCFEBF1F8
:1047D000ECCFECF1ECCFEDF11A0EE225E96E000E14
:1047E000E321EA6EEFCFEEF1ECCFEFF1ECCFF0F199
:1047F000ECCFF1F103C031F201C030F2E7C133F286
:10480000E6C132F2E9C135F2E8C134F2EDC139F264
:10481000ECC138F2EBC137F2EAC136F2F1C13DF238
:10482000F0C13CF2EFC13BF2EEC13AF2110E0201CF
:104830003E6FFF0E3F6F416B406B00015AEC12F070
:10484000160E0101E225E96E000EE321EA6E010E6B
:10485000EE2605E1EE2A03E1EE2A01E1ED2AE2C1AE
:10486000E9FFE3C1EAFF040EEF6E00014FEF26F00F
:1048700027EC10F002C0DDF101C0DCF10101DF6BBB
:10488000DF510108D8A018D2036ADF51C40FE96EC6
:10489000010E0320EA6EEF50FB0FD8B00BD2050FCC
:1048A00000015FEF26F0036A0101DF51C20F016EC4
:1048B000010E032201C0E0F103C0E1F1010EE36F3C
:1048C000F60EE26F00019CEF1EF0E1C1EAFFE0C1CD
:1048D000E9FF01C0EFFF036A0101DF51C20FE96E7A
:1048E000010E0320EA6EEF50FE0828E0036ADF5154
:1048F000C40FE96E010E0320EA6E010EEF6EDF5168
:10490000140DF350E16BE06F900EE025E26F010EA5
:10491000E121E36FBD6FE2C1BCF1E46BE451000142
:1049200071EC00F00101E42B006EFD6F00010DEC55
:1049300002F0090E0101E45DF1E11ED0DF51140D1A
:10494000F350E16BE06F900EE025E26F010EE12184
:10495000E36FBD6FE2C1BCF1E46BE451000183EC95
:1049600000F00101E42B006EFD6F00010DEC02F080
:104970000C0E0101E45DF1E19DD1036A0101DF51FB
:10498000C20FE96E010E0320EA6EEFCFE0F1E0C145
:10499000E1F100011AEC1FF0015235E0036A010158
:1049A000DF51C40FE96E010E0320EA6E020EEF6EB6
:1049B000DF51140DF350E16BE06F900EE025E26FD4
:1049C000010EE121E36FBD6FE2C1BCF1E46BE45184
:1049D000000197EC00F00101E42B006EFD6F000177
:1049E0000DEC02F00A0E0101E45DF1E1D890DF3533
:1049F000036ABE0FE96E010E0320EA6EDDC1ECFF13
:104A0000ED52DCC1EFFF010155D1036A0101DF5115
:104A1000C20FE96E010E0320EA6EEFCFE0F1E0C1B4
:104A2000E1F100011AEC1FF00152D8B48CD0D890FB
:104A30000101DF35036ABE0FE96E010E0320EA6E45
:104A4000ECCF03F0ED52EFCF01F0DD51035C04E356
:104A500005E10150DC5D02E3000E01D0010E036AA6
:104A600003101FE0D890DF35036ABE0FE96E010E18
:104A70000320EA6EECCF03F0ED52EF50FF08E06F39
:104A8000FF0E0354E16FDC51E025E26FDD51E121BF
:104A9000E36F010EE225016E000EE321036E01506B
:104AA00008D0D890DF35036ABE0FE96E010E0320EF
:104AB000EA6E036ADF51C20FE96E010E0320EA6E4F
:104AC000EFCFE0F1E0C1E1F1DFC1E2F1000152D549
:104AD00001C0DEF10101DE5334E0DF51140DF3506B
:104AE000E16BE06F900EE025E26F010EE121E36FD4
:104AF000BD6FE2C1BCF1E46BE4510001AAEC00F02F
:104B00000101E42B006EFD6F00010DEC02F00A0EB6
:104B10000101E45DF1E1036ADF51C40FE96E010EAA
:104B20000320EA6E030EEF6ED890DF35036ABE0FE6
:104B3000E96E010E0320EA6EDDC1ECFFED52DCC12F
:104B4000EFFF29D000010101DF51140DF350E16B9B
:104B5000E06F900EE025E26F010EE121E36FBD6F83
:104B6000E2C1BCF1E46BE4510001BDEC00F00101D5
:104B7000E42B006EFD6F00010DEC02F00C0E010144
:104B8000E45DF1E1036ADF51C40FE96E010E032019
:104B9000EA6E040EEF6E8ED0036A0101DF51C20F80
:104BA000E96E010E0320EA6EEFCFE0F1E0C108F2FA
:104BB0000001D1EC1FF001520CE0036A0101DF514A
:104BC000C40FE96E010E0320EA6E040EEF6E58D09A
:104BD0000001D8900101DF35036ABE0FE96E010EB6
:104BE0000320EA6EECCF03F0ED52EFCF01F0DD5180
:104BF000035C04E305E10150DC5D02E3000E01D03B
:104C0000010E036A03101FE0D890DF35036ABE0F60
:104C1000E96E010E0320EA6EECCF03F0ED52EF5087
:104C2000FF08E06FFF0E0354E16FDC51E025E26FF7
:104C3000DD51E121E36F010EE225016E000EE3215B
:104C4000036E015012D0D890DF35036ABE0FE96EB3
:104C5000010E0320EA6EECCF03F0ED52EF50DC5D65
:104C6000006E0350DD59036E0050640809E2036AC8
:104C7000DF51C40FE96E010E0320EA6E040EEF6EE1
:104C800019D0036A0101DF51C20FE96E010E032042
:104C9000EA6EEFCFE0F1E0C1E1F1000148D5036A2F
:104CA0000101DF51C40FE96E010E0320EA6EEF6AC5
:104CB00001D00101DF2BE4D500014DEF28F0F2CF48
:104CC0000EF0F29EE824F76AF736E30FF66E4C0E0C
:104CD000F7220A00F550FA6E0800F5500EBEF28E6B
:104CE000F96EA6487A490A4A984B824C27EC10F094
:104CF00002C0DDF101C0DCF1000E58B4010E000A63
:104D000003E0010A41E075D00C0E0101E26F0001E1
:104D100031EC02F0010EEA6E900EE96E000EEF101B
:104D200010E0EACFDFF1E9CFDEF1EFCFE2F131ECD5
:104D300002F0DFC1EAFFDEC1E9FFE92AD8B4EA2ABE
:104D4000EDD70A0E0101E26F000131EC02F0010E15
:104D5000EA6EA40EE96E000EEF1010E0EACFE1F16A
:104D6000E9CFE0F1EFCFE2F131EC02F0E1C1EAFF8F
:104D7000E0C1E9FFE92AD8B4EA2AEDD75884DDC1B9
:104D8000DBF1DCC1DAF135D00101DD51DB5D04E39B
:104D900005E1DA51DC5D02E3000E01D0010E036A89
:104DA000031015E0FF0ED880DA55DE6FFF0EDB55DD
:104DB000DF6FDC51DE25E06FDD51DF21E16F010E99
:104DC000E025016E000EE121036E015007D0DA519B
:104DD000DC5D006EDB51DD59036E0050E26F03C0F5
:104DE000E3F1E35303E1E251020801E258940001C8
:104DF00000D04EEF28F0F86AD09E088EEA6AE96A81
:104E0000700ED36ED350B8960C0EAF6EA20EAC6E71
:104E1000900EAB6EC150C00B0F09C16E070EB46E81
:104E2000496A4A6A506A516A526A536A5A6A5B6AA4
:104E30005C6A5D6A040E5E6E58920101156B166B1A
:104E4000176B186B196B1A6B1B6B1C6B1D6B1E6B36
:104E50001F6B2A6B2B6B2C6B2D6B2E6B2F6B306BA0
:104E6000316B326B336B346B356B366B376B386B46
:104E7000396B3A6B3B6B3C6B3D6B3E6B3F6B406BF6
:104E8000416B426B436B446B456B466B476B486BA6
:104E9000496B4A6B4B6B4C6B4D6B4E6B4F6B506B56
:104EA000516B526B536B546B556B566B576B586B06
:104EB000596B5A6B5B6B5C6B5D6B5E6B5F6B606BB6
:104EC000616B626B636B646B656B666B676B686B66
:104ED000696B6A6B6B6B6C6B6D6B6E6B6F6B450E9E
:104EE000706F716B726B200E736F746B756B766B7A
:104EF000776B640E786F110E796F2A0E7A6F9D0EA4
:104F00007B6F0A0E7C6F0B0E7D6F0C0E7E6F0D0E8D
:104F10007F6F0A0E806F0B0E816F0C0E826F0E0E6C
:104F2000836F040E846F856B040E866F010E876F8E
:104F3000886B080E896F8A6B8B6B010E8C6F020E6B
:104F40008D6F030E8E6F040E8F6FB86BB96BBA6BDB
:104F5000BB6BBC6BBD6BBE6BBF6BC06BC16BFE0E26
:104F6000C26FC36BC46BC56BC66BC76BC86BC96BB9
:104F7000CA6BCB6BCC6BCD6BCE6BCF6BD06BD16B6D
:104F8000D26BD36BD46BD56BD66BD76BD86BD96B1D
:104F9000DA6BDB6B5894C150C00B0F09C16EC29025
:104FA0009698C69A010EC66E000EC76ED190800EFE
:104FB000D56ECD6A000ECA6E000ECB6E070EB46EB3
:104FC0009250926E060E006E002EFED70000B45076
:104FD000A19CB56ADC6BDC510001D1EC00F0010151
:104FE000DC2B000129EC01F0320E0101DC5DF3E164
:104FF00000012DEF01F03AEF01F051EF01F0CBEF9E
:1050000001F00101DC6BDC510001F8EC00F0010162
:10501000DC2B000129EC01F0060E0101DC5DF3E15F
:105020000C0EDC6FFA0EE36F000166EC01F001017B
:10503000DC2FF8D7010EBD6F900EBC6FDC6BDC511E
:10504000000109EC01F00101DC2B006EFD6F000195
:105050000DEC02F0040E0101DC5DF1E1010EBD6F0B
:10506000A40EBC6FDC6BDC51000109EC01F0010106
:10507000DC2B006EFD6F00010DEC02F0040E01014F
:10508000DC5DF1E10C0EE26F000131EC02F00FEF9C
:1050900006F0AEEF1DF038EF24F028D6FAD7030063
:020000040030CA
:0E00000000C9190E008781000FC00FE00F40ED
:00000001FF
;PIC18F4620
;CRC=5BB2  CREATED="16-Aug-12 12:59"
